:020000040800F2
:10000000002800206D0A0008D5090008DB09000857
:10001000E1090008E7090008ED09000800000000F8
:10002000000000000000000000000000F3090008CC
:10003000FF090008000000000B0A0008170A00086A
:10004000B50A0008B50A0008B50A0008B50A000894
:10005000B50A0008B50A0008B50A0008B50A000884
:10006000B50A0008B50A0008B50A0008B50A000874
:10007000B50A0008B50A0008B50A0008B50A000864
:10008000B50A0008B50A0008B50A0008250A0008E4
:10009000390A0008B50A0008B50A0008B50A0008C0
:1000A000B50A0008B50A0008B50A0008B50A000834
:1000B0004D0A0008B50A000800000000B50A000853
:1000C000B50A00080000000000000000B50A0008A2
:1000D00000000000B50A0008B50A00080000000092
:1000E000B50A0008B50A0008B50A000800000000BB
:1000F0000000000000000000000000000000000000
:0C01000000000000000000005FF808F1A3
:10010C0010B5054C237833B9044B13B10448AFF345
:10011C0000800123237010BD20000020000000008F
:10012C00E44D000808B5034B1BB103490348AFF37A
:10013C00008008BD0000000024000020E44D0008F1
:10014C0080B582B000AF78607B68002B23D1002291
:10015C000121C24800F094FF00220221BF4800F0A8
:10016C008FFF00220421BD4800F08AFF00220821E5
:10017C00BA4800F085FF00221021B84800F080FF3B
:10018C0000222021B54800F07BFF01224021B3481A
:10019C0000F076FF5DE17B68012B23D10122012168
:1001AC00AE4800F06DFF00220221AC4800F068FF61
:1001BC0000220421A94800F063FF01220821A7486E
:1001CC0000F05EFF01221021A44800F059FF01222B
:1001DC002021A24800F054FF012240219F4800F04A
:1001EC004FFF36E17B68022B23D1002201219B4873
:1001FC0000F046FF00220221984800F041FF012246
:10020C000421964800F03CFF00220821934800F09E
:10021C0037FF00221021914800F032FF01222021EB
:10022C008E4800F02DFF002240218C4800F028FF62
:10023C000FE17B68032B23D100220121874800F0BA
:10024C001FFF00220221854800F01AFF0022042122
:10025C00824800F015FF00220821804800F010FFB2
:10026C00012210217D4800F00BFF012220217B4848
:10027C0000F006FF00224021784800F001FFE8E082
:10028C007B68042B23D101220121744800F0F8FE75
:10029C0000220221714800F0F3FE002204216F4875
:1002AC0000F0EEFE012208216C4800F0E9FE01226C
:1002BC0010216A4800F0E4FE00222021674800F07B
:1002CC00DFFE00224021654800F0DAFEC1E07B68C9
:1002DC00052B23D100220121604800F0D1FE012220
:1002EC0002215E4800F0CCFE002204215B4800F0A5
:1002FC00C7FE00220821594800F0C2FE012210213D
:10030C00564800F0BDFE00222021544800F0B8FEF3
:10031C0000224021514800F0B3FE9AE07B68062B86
:10032C0023D1002201214D4800F0AAFE0122022116
:10033C004A4800F0A5FE00220421484800F0A0FE27
:10034C0000220821454800F09BFE00221021434862
:10035C0000F096FE00222021404800F091FE002281
:10036C0040213E4800F08CFE73E07B68072B23D1C4
:10037C0000220121394800F083FE00220221374877
:10038C0000F07EFE00220421344800F079FE0122A8
:10039C000821324800F074FE012210212F4800F091
:1003AC006FFE012220212D4800F06AFE012240211F
:1003BC002A4800F065FE4CE07B68082B23D1002214
:1003CC000121264800F05CFE00220221234800F0A7
:1003DC0057FE00220421214800F052FE0022082181
:1003EC001E4800F04DFE002210211C4800F048FE73
:1003FC0000222021194800F043FE0022402117481A
:10040C0000F03EFE25E07B68092B22D10022012161
:10041C00124800F035FE00220221104800F030FE98
:10042C00002204210D4800F02BFE002208210B486D
:10043C0000F026FE01221021084800F021FE0022C7
:10044C002021064800F01CFE00224021034800F049
:10045C0017FE00BF0837BD4680BD00BF000C014031
:10046C0080B582B000AF78607B68032B2AD801A2DC
:10047C0052F823F091040008A1040008B10400080C
:10048C00C1040008124A7B6852F823301846FFF763
:10049C0057FE18E00E4A7B6852F823301846FFF7D7
:1004AC004FFE10E00A4A7B6852F823301846FFF7DB
:1004BC0047FE08E0064A7B6852F823301846FFF7DF
:1004CC003FFE00E000BF00BF0837BD4680BD00BF47
:1004DC000000002080B500AF00F0E8FA00F00CF846
:1004EC0000F0CEF800F05EF800F0A8F8014802F039
:1004FC004DFEFEE74400002080B594B000AF07F13C
:10050C00280328220021184604F05EFC07F114038E
:10051C0000221A605A609A60DA601A613B1D002250
:10052C001A605A609A60DA600223BB620123BB63D3
:10053C001023FB6302237B640023BB640023FB6456
:10054C0007F12803184602F03FF90346002B01D0AF
:10055C0000F0B0F90F237B610023BB610023FB612A
:10056C0000233B6200237B6207F114030021184631
:10057C0002F0AAFB0346002B01D000F09BF91023DC
:10058C007B604FF480033B613B1D184602F0F8FC86
:10059C000346002B01D000F08DF900BF5037BD464B
:1005AC0080BD000080B586B000AF07F108030022C3
:1005BC001A605A609A60DA603B4600221A605A60F0
:1005CC001D4B4FF080421A601B4B41F63F725A6034
:1005DC00194B00229A60184B0922DA60164B002244
:1005EC001A61154B00229A61134802F07FFD0346F5
:1005FC00002B01D000F05EF94FF48053BB6007F183
:10060C00080319460C4802F015FF0346002B01D0D5
:10061C0000F050F900233B6000237B603B461946F9
:10062C00054803F0E1F80346002B01D000F042F935
:10063C0000BF1837BD4680BD4400002080B500AF18
:10064C000D4B0E4A1A600C4B08225A600A4B0222C0
:10065C009A60094B00229A61074B0022DA61064B23
:10066C0000221A62044800F03CFD0346002B01D026
:10067C0000F020F900BF80BD8C000020005C004021
:10068C0080B586B000AF07F1080300221A605A60EB
:10069C009A60DA60214B9B69204A43F00403936112
:1006AC001E4B9B6903F004037B607B681B4B9B69AF
:1006BC001A4A43F008039361184B9B6903F0080333
:1006CC003B603B6800224FF47C71154800F0D8FC6D
:1006DC0000227F21134800F0D3FC4FF47C73BB60E5
:1006EC000123FB6000233B6102237B6107F10803BC
:1006FC0019460B4800F04AFB7F23BB600123FB60CB
:10070C0000233B6102237B6107F10803194605486E
:10071C0000F03CFB00BF1837BD4680BD0010024006
:10072C0000080140000C014080B582B000AF786039
:10073C005C4B1B68013B5B4A13605A4B1B68002BDC
:10074C0000F3AC80574B32221A602021564800F03F
:10075C00AFFC564B1B68002B27D10022402152487E
:10076C0000F08EFC012280214F4800F089FC012210
:10077C004FF480714C4800F083FC01224FF400715F
:10078C00494800F07DFC494B01221A60484B1B681C
:10079C001846FFF765FE464B1B680133444A13604D
:1007AC001021414800F084FC78E0404B1B68012B81
:1007BC0023D1012240213C4800F062FC0022802120
:1007CC00394800F05DFC01224FF48071364800F08E
:1007DC0057FC01224FF40071334800F051FC334BAD
:1007EC0002221A60324B1B681846FFF739FE304B59
:1007FC001B6801332E4A136050E02C4B1B68022BF4
:10080C0027D101224021284800F03AFC0122802106
:10081C00254800F035FC00224FF48071224800F08E
:10082C002FFC01224FF400711F4800F029FC1F4BD4
:10083C0003221A601E4B1B681846FFF711FE1C4B57
:10084C001B6801331A4A13601021174800F030FC62
:10085C0024E0164B1B68032B20D1012240211248A7
:10086C0000F00EFC012280210F4800F009FC01224F
:10087C004FF480710C4800F003FC00224FF400711F
:10088C00094800F0FDFB094B00221A60084B1B685D
:10089C001846FFF7E5FD064B00221A6000BF08372B
:1008AC00BD4680BD10000020000801404000002023
:1008BC003C00002080B400AF72B600BFFEE7000021
:1008CC0080B485B000AF154B9B69144A43F001030B
:1008DC009361124B9B6903F00103BB60BB680F4B28
:1008EC00DB690E4A43F08053D3610C4BDB6903F098
:1008FC0080537B607B680A4B5B68FB60FB6823F072
:10090C00E063FB60FB6843F00073FB60044AFB6828
:10091C00536000BF1437BD4680BC704700100240C6
:10092C000000014080B584B000AF78607B681B6824
:10093C00B3F1804F13D10C4BDB690B4A43F001032D
:10094C00D361094BDB6903F00103FB60FB680022F8
:10095C0000211C2000F0E3F91C2000F0FCF900BF82
:10096C001037BD4680BD00BF0010024080B584B07A
:10097C0000AF78607B681B68114A93421BD1114B06
:10098C00DB69104A43F40003D3610E4BDB6903F4BB
:10099C000003FB60FB6800220021132000F0BFF96C
:1009AC00132000F0D8F900220021142000F0B7F930
:1009BC00142000F0D0F900BF1037BD4680BD00BF39
:1009CC00005C00400010024080B400AFFEE780B431
:1009DC0000AFFEE780B400AFFEE780B400AFFEE7E7
:1009EC0080B400AFFEE780B400AF00BFBD4680BC52
:1009FC00704780B400AF00BFBD4680BC704780B468
:100A0C0000AF00BFBD4680BC704780B500AF00F0A2
:100A1C0093F800BF80BD000080B500AF024800F025
:100A2C005FFC00BF80BD00BF8C00002080B500AF14
:100A3C00024800F055FC00BF80BD00BF8C000020B8
:100A4C0080B500AF024802F0EDFB00BF80BD00BFD7
:100A5C004400002080B400AF00BFBD4680BC70478E
:100A6C00FFF7F8FF0B480C490C4A002302E0D4585E
:100A7C00C4500433C4188C42F9D3094A094C0023DE
:100A8C0001E013600432A242FBD304F079F9FFF7C2
:100A9C0021FD70470000002020000020284E000897
:100AAC002000002080030020FEE7000080B500AF8E
:100ABC00084B1B68074A43F010031360032000F037
:100ACC0023F90F2000F008F8FFF7FAFE0023184670
:100ADC0080BD00BF0020024080B582B000AF7860BE
:100AEC00124B1A68124B1B7819464FF47A73B3FBEE
:100AFC00F1F3B2FBF3F3184600F03BF90346002B7D
:100B0C0001D001230EE07B680F2B0AD800227968F4
:100B1C004FF0FF3000F003F9064A7B6813600023A6
:100B2C0000E0012318460837BD4680BD14000020A4
:100B3C001C0000201800002080B400AF054B1B786F
:100B4C001A46054B1B681344034A136000BFBD468D
:100B5C0080BC70471C0000207C03002080B400AFD8
:100B6C00024B1B681846BD4680BC70477C030020B6
:100B7C0080B485B000AF78607B6803F00703FB603E
:100B8C000C4BDB68BB60BA684FF6FF031340BB60CD
:100B9C00FB681A02BB68134343F0BF6343F4003392
:100BAC00BB60044ABB68D36000BF1437BD4680BC31
:100BBC00704700BF00ED00E080B400AF044BDB6871
:100BCC001B0A03F007031846BD4680BC704700BFE4
:100BDC0000ED00E080B483B000AF0346FB7197F9E1
:100BEC000730002B0BDBFB7903F01F02064997F94A
:100BFC0007305B09012000FA02F241F8232000BF04
:100C0C000C37BD4680BC704700E100E080B483B077
:100C1C0000AF03463960FB7197F90730002B0ADBF4
:100C2C003B68DAB20C4997F907301201D2B20B4487
:100C3C0083F800230AE03B68DAB20849FB7903F039
:100C4C000F03043B1201D2B20B441A7600BF0C37CF
:100C5C00BD4680BC704700BF00E100E000ED00E045
:100C6C0080B489B000AFF860B9607A60FB6803F0BB
:100C7C000703FB61FB69C3F10703042B28BF0423A3
:100C8C00BB61FB690433062B02D9FB69033B00E013
:100C9C0000237B614FF0FF32BB6902FA03F3DA43A6
:100CAC00BB681A407B699A404FF0FF317B6901FAAF
:100CBC0003F3D9437B680B40134318462437BD46D6
:100CCC0080BC704780B582B000AF78607B68013B18
:100CDC00B3F1807F01D301230FE00A4A7B68013B0B
:100CEC0053600F214FF0FF30FFF790FF054B0022B0
:100CFC009A60044B07221A60002318460837BD4639
:100D0C0080BD00BF10E000E080B582B000AF78601D
:100D1C007868FFF72DFF00BF0837BD4680BD80B552
:100D2C0086B000AF0346B9607A60FB7300237B6129
:100D3C00FFF742FF78617A68B9687869FFF790FF2E
:100D4C00024697F90F3011461846FFF75FFF00BFB8
:100D5C001837BD4680BD80B582B000AF0346FB712D
:100D6C0097F907301846FFF735FF00BF0837BD4627
:100D7C0080BD80B582B000AF78607868FFF7A2FFC5
:100D8C00034618460837BD4680BD000080B48BB0C2
:100D9C0000AF7860396000237B6200233B6248E13E
:100DAC0001227B6A02FA03F3FB613B681B68FA6958
:100DBC001340BB61BA69FB699A4240F037813B68CA
:100DCC005B68A34A93425ED0A14A934275D8A14A6C
:100DDC00934258D09F4A93426FD89F4A934252D025
:100DEC009D4A934269D89D4A93424CD09B4A934268
:100DFC0063D89B4A934246D0994A93425DD8122BB2
:100E0C002AD8122B59D801A252F823F0930E0008BD
:100E1C006D0E00087F0E0008C10E0008C70E0008FA
:100E2C00C70E0008C70E0008C70E0008C70E000842
:100E3C00C70E0008C70E0008C70E0008C70E000832
:100E4C00C70E0008C70E0008C70E0008C70E000822
:100E5C00750E0008890E0008824A934213D02CE0CC
:100E6C003B68DB683B6229E03B68DB6804333B6230
:100E7C0024E03B68DB6808333B621FE03B68DB68BF
:100E8C000C333B621AE03B689B68002B02D10423B5
:100E9C003B6213E03B689B68012B05D108233B6246
:100EAC007B68FA691A6109E008233B627B68FA697E
:100EBC005A6103E000233B6200E000BFBB69FF2BDB
:100ECC0001D87B6801E07B6804337B61BB69FF2B35
:100EDC0002D87B6A9B0002E07B6A083B9B003B616B
:100EEC007B691A680F213B6901FA03F3DB431A4053
:100EFC00396A3B6901FA03F31A437B691A603B6850
:100F0C005B6803F08053002B00F09080564B9B697C
:100F1C00554A43F001039361534B9B6903F0010362
:100F2C00BB60BB68514A7B6A9B08023352F8233082
:100F3C00FB607B6A03F003039B000F2202FA03F3AE
:100F4C00DB43FA681340FB607B68494A93420DD03F
:100F5C007B68484A934207D07B68474A934201D149
:100F6C00022304E0032302E0012300E000237A6A59
:100F7C0002F0030292009340FA681343FB603B4972
:100F8C007B6A9B080233FA6841F823203B685B6854
:100F9C0003F48013002B06D0384B9A683749BB6991
:100FAC0013438B6006E0354B9A68BB69DB433349CE
:100FBC0013408B603B685B6803F40013002B06D076
:100FCC002E4BDA682D49BB691343CB6006E02B4BE3
:100FDC00DA68BB69DB4329491340CB603B685B682B
:100FEC0003F40033002B06D0244B5A682349BB6909
:100FFC0013434B6006E0214B5A68BB69DB431F4926
:10100C0013404B603B685B6803F48033002B06D0C5
:10101C001A4B1A681949BB6913430B6006E0174B4E
:10102C001A68BB69DB43154913400B607B6A0133BB
:10103C007B623B681A687B6A22FA03F3002B7FF40D
:10104C00AFAE00BF00BF2C37BD4680BC704700BFA1
:10105C00000032100000311000002210000021109E
:10106C00000012100000111000100240000001409E
:10107C0000080140000C0140001001400004014038
:10108C0080B483B000AF78600B467B8013467B70D6
:10109C007B78002B03D07A887B681A6103E07B880D
:1010AC001A047B681A6100BF0C37BD4680BC7047C0
:1010BC0080B485B000AF78600B467B807B68DB68C2
:1010CC00FB607A88FB6813401A04FB68D9437B8861
:1010DC000B401A437B681A6100BF1437BD4680BCB5
:1010EC007047F0B58BB006AF78607B68002B01D1F0
:1010FC000123F1E07B6893F8A932DBB2002B06D117
:10110C007B68002283F8A8227868FFF72FFC7B68A5
:10111C00032283F8A9227B681B68184602F0DEFBC9
:10112C007B681B683B607E686D4606F110040FCC33
:10113C000FC523682B60331D0ECB386802F0BEFB45
:10114C000346002B05D07B68022283F8A9220123D9
:10115C00C2E07B681B680021184602F0D9FB002313
:10116C00FB7340E0FB7B79685A1C13469B001344CD
:10117C00DB000B44013301221A70FB7B79685A1C8B
:10118C0013469B001344DB000B44FA7B1A70FB7B69
:10119C0079685A1C13469B001344DB000B44033341
:1011AC0000221A70FA7B796813469B001344DB000B
:1011BC000B44383300221A60FA7B796813469B0083
:1011CC001344DB000B443C3300221A60FA7B796831
:1011DC0013469B001344DB000B44403300221A607F
:1011EC00FB7B0133FB73FA7B7B685B689A42B9D358
:1011FC000023FB7344E0FA7B796813469B0013448D
:10120C00DB000B4403F2691300221A70FA7B796835
:10121C0013469B001344DB000B4403F5B473FA7BB9
:10122C001A70FA7B796813469B001344DB000B445D
:10123C0003F26B1300221A70FA7B796813469B0039
:10124C001344DB000B4403F5BC7300221A60FA7BD9
:10125C00796813469B001344DB000B4403F5BE7303
:10126C0000221A60FA7B796813469B001344DB005A
:10127C000B4403F5C07300221A60FB7B0133FB7334
:10128C00FA7B7B685B689A42B5D37B681B683B60D2
:10129C007E686D4606F110040FCC0FC523682B60D9
:1012AC00331D0ECB386802F03FFB0346002B05D0F4
:1012BC007B68022283F8A92201230DE07B680022BF
:1012CC0083F824207B68012283F8A9227B681B68A1
:1012DC00184603F0A8FC002318461437BD46F0BD91
:1012EC0080B588B000AF78607B681B68184603F047
:1012FC00A4FCB861BB6903F40043002B03D07868ED
:10130C0000F088F91BE1BB6903F48063002B13D058
:10131C007B681B68B3F844309AB27B681B6822F474
:10132C00806292B2A3F84420786800F033F900216F
:10133C00786800F04AF902E1BB6903F48043002BA2
:10134C000CD07B681B68B3F844309AB27B681B687E
:10135C0022F4804292B2A3F84420F0E0BB6903F47B
:10136C000053002B0CD07B681B68B3F844309AB246
:10137C007B681B6822F4005292B2A3F84420DEE092
:10138C00BB6903F48053002B27D07B681B68B3F830
:10139C0040309AB27B681B6822F0040292B2A3F828
:1013AC0040207B681B68B3F840309AB27B681B689E
:1013BC0022F0080292B2A3F84020786800F0FCF802
:1013CC007B681B68B3F844309AB27B681B6822F4C4
:1013DC00805292B2A3F84420B1E0BB6903F40063DD
:1013EC00002B00F085800023FB7711E07B681B68E5
:1013FC001A46FB7F9B001A44FB7F128892B25B005B
:10140C0007F120010B4423F8182CFB7F0133FB77E9
:10141C00FB7F072BEAD97B681B68B3F840309AB284
:10142C007B681B6842F0010292B2A3F840207B68F3
:10143C001B68B3F840309AB27B681B6822F001023B
:10144C0092B2A3F8402000BF7B681B68B3F844300D
:10145C009BB203F48063002BF6D07B681B68B3F857
:10146C0044309AB27B681B6822F4806292B2A3F873
:10147C0044200023FB7710E0FB7F7A68126811464A
:10148C00FA7F92000A445B0007F120010B4433F809
:10149C00183C1380FB7F0133FB77FB7F072BEBD9C9
:1014AC007B681B68B3F840309AB27B681B6842F0CB
:1014BC00080292B2A3F840207B681B68B3F8443052
:1014CC009AB27B681B6822F4006292B2A3F84420A3
:1014DC007B681B68B3F840309AB27B681B6842F09B
:1014EC00040292B2A3F84020786800F05CF826E081
:1014FC00BB6903F40073002B0FD07B681B68B3F837
:10150C0044309AB27B681B6822F4007292B2A3F842
:10151C004420786800F035F811E0BB6903F480735F
:10152C00002B0CD07B681B68B3F844309AB27B68F4
:10153C001B6822F4807292B2A3F8442000BF2037BB
:10154C00BD4680BD80B483B000AF78600B46FB70A5
:10155C0000BF0C37BD4680BC704780B483B000AF71
:10156C0078600B46FB7000BF0C37BD4680BC7047E3
:10157C0080B483B000AF786000BF0C37BD4680BC30
:10158C00704780B483B000AF786000BF0C37BD46A5
:10159C0080BC704780B483B000AF786000BF0C375C
:1015AC00BD4680BC704780B483B000AF786000BF8C
:1015BC000C37BD4680BC704780B483B000AF7860F8
:1015CC0000BF0C37BD4680BC704780B582B000AF01
:1015DC0078600B46FB707B6893F8A832012B01D125
:1015EC00022313E07B68012283F8A8227B68FA7837
:1015FC0083F824207B681B68FA781146184603F0A0
:10160C00FFFA7B68002283F8A822002318460837CB
:10161C00BD4680BD80B596B000AF7860BFE37B68F7
:10162C001B68B3F84430A7F84E30B7F84E30DBB235
:10163C0003F00F0387F84D3097F84D30002B40F036
:10164C007981B7F84E3003F01003002B52D17B6830
:10165C001B681B889BB223F4E14323F07003FB81CE
:10166C007B681A68FB896FEA43436FEA53439BB26A
:10167C0013807B6828337B657B681B68B3F850301C
:10168C009BB21A467B6D1B78DB00134402335B0064
:10169C007A681268134403F580631B88C3F309024C
:1016AC007B6DDA617B6D5A697B6DDB691A447B6DEE
:1016BC005A6100217868FFF750FF7B6893F824305B
:1016CC00DBB2002B00F06B837B6D9B69002B40F031
:1016DC0066837B6893F82430DBB263F07F03DAB265
:1016EC007B681B6892B2A3F84C207B68002283F8BD
:1016FC00242054E37B6803F5B4737B657B681B681B
:10170C001B88A7F84A30B7F84A3003F40063002B63
:10171C0034D07B681B68B3F850309BB21A467B6D93
:10172C001B78DB00134406335B007A6812681344A1
:10173C0003F580631B88C3F309027B6DDA617B6858
:10174C0018687B6803F52C717B6DDA887B6DDB691F
:10175C009BB203F0C6FA7B681B681B889AB240F6F2
:10176C008F7313403B827B681B683A8A42F080027D
:10177C0092B21A807868FFF7FBFE10E3B7F94A3093
:10178C00002B80F20C837B681B681B889AB240F696
:10179C008F731340FB837B681B68FA8B42F08002CB
:1017AC0092B21A807B681B68B3F850309BB21A4611
:1017BC007B6D1B78DB00134406335B007A68126880
:1017CC00134403F580631B88C3F309027B6DDA6154
:1017DC007B6DDB69002B19D07B6D5B69002B15D001
:1017EC007B6818687B6D59697B6DDA887B6DDB696A
:1017FC009BB203F076FA7B6D5A697B6DDB691A44F8
:10180C007B6D5A6100217868FFF79CFE7B681B6832
:10181C001B88A7F84A30B7F84A3003F40063002B52
:10182C0040F0BD82B7F84A3003F44053B3F5405F43
:10183C0000F0B5827B681B68BB617B681B68B3F8E2
:10184C0050309BB21A46BB691344BB61BB6903F2AF
:10185C000C437B617B691B889BB2C3F309039AB26F
:10186C007B691A807B6D1B693E2B1DD97B6D1B69B7
:10187C005B097B647B6D1B6903F01F03002B02D19A
:10188C007B6C013B7B647B691B889AB27B6C9BB243
:10189C009B029BB213439BB26FEA43436FEA5343E1
:1018AC009AB27B691A8026E07B6D1B69002B0AD1EA
:1018BC007B691B889BB26FEA43436FEA53439AB22E
:1018CC007B691A8017E07B6D1B695B087B647B6D01
:1018DC001B6903F00103002B02D07B6C01337B648A
:1018EC007B691B889AB27B6C9BB29B029BB21343A5
:1018FC009AB27B691A807B681B681B889BB223F4A5
:10190C00804323F070037B827B8A83F480537B8239
:10191C007B8A83F400537B827B681A687B8A43F052
:10192C007F4343F47F0343F4004343F080039BB2B3
:10193C00138034E27B681B681A4697F84D309B0085
:10194C0013441B88A7F84A30B7F94A30002B80F2B1
:10195C00FC807B681B681A4697F84D309B0013443B
:10196C001B889AB240F68F731340A7F848307B68F7
:10197C001B681A4697F84D309B001344B7F8482063
:10198C0042F0800292B21A8097F84D2013469B00C9
:10199C001344DB0003F5B4737A6813447B657B6DE9
:1019AC001B7B002B25D17B681B68B3F850309BB296
:1019BC001A467B6D1B78DB00134406335B007A6898
:1019CC001268134403F580631B88C3F30903A7F85B
:1019DC005030B7F85030002B00F092807B681868BC
:1019EC007B6D59697B6DDA88B7F8503003F079F963
:1019FC0086E07B6DDB78022B0AD1B7F84A301A46A9
:101A0C00796D786800F0D9F90346A7F8503077E083
:101A1C007B681B681A467B6D1B789B0013441B88E4
:101A2C009BB223F4E04323F07003A7F852307B6899
:101A3C001B681A467B6D1B789B001A44B7F8523012
:101A4C0043F07F4343F47F0343F4004343F0C0036C
:101A5C009BB213807B681B681A467B6D1B789B00BE
:101A6C0013441B889BB203F48043002B24D07B6867
:101A7C001B68B3F850309BB21A467B6D1B78DB00A9
:101A8C00134402335B007A681268134403F58063D5
:101A9C001B88C3F30903A7F85030B7F85030002B5C
:101AAC002ED07B6818687B6D59697B6D1A89B7F8E5
:101ABC00503003F016F923E07B681B68B3F8503004
:101ACC009BB21A467B6D1B78DB00134406335B001C
:101ADC007A681268134403F580631B88C3F3090307
:101AEC00A7F85030B7F85030002B09D07B68186835
:101AFC007B6D59697B6D5A89B7F8503003F0F1F85A
:101B0C007B6DDA69B7F850301A447B6DDA617B6D06
:101B1C005A69B7F850301A447B6D5A617B6D9B69DA
:101B2C00002B05D0B7F850207B6D1B699A4206D26A
:101B3C007B6D1B7819467868FFF704FD05E07B6820
:101B4C001B68796D184601F00FFFB7F84A3003F0A7
:101B5C008003002B00F0238197F84D305A1C13465C
:101B6C009B001344DB007A6813447B657B681B681D
:101B7C001A4697F84D309B0013441B889BB223F4F4
:101B8C00E14323F07003A7F842307B681B681A46C8
:101B9C0097F84D309B001A44B7F842306FEA434334
:101BAC006FEA53439BB213807B6DDB78012B40F0C3
:101BBC00A2807B6D00229A617B6D1B7B002B00F059
:101BCC009380B7F84A3003F04003002B46D07B6D6E
:101BDC005B78002B26D17B681B687B627B681B685B
:101BEC00B3F850309BB21A467B6A13447B627B6D10
:101BFC001B781A017B6A134403F204433B623B6A71
:101C0C001B889BB2C3F309039AB23B6A1A803B6AE6
:101C1C001B889BB26FEA43436FEA53439AB23B6A09
:101C2C001A8061E07B6D5B78012B5DD17B681B6852
:101C3C00FB627B681B68B3F850309BB21A46FB6A98
:101C4C001344FB627B6D1B781A01FB6A134403F28D
:101C5C000443BB62BB6A00221A8045E07B681B68A8
:101C6C00FB637B6D5B78002B26D17B681B687B63E9
:101C7C007B681B68B3F850309BB21A467B6B1344DD
:101C8C007B637B6D1B781A017B6B134403F20C4353
:101C9C003B633B6B1B889BB2C3F309039AB23B6B50
:101CAC001A803B6B1B889BB26FEA43436FEA53432A
:101CBC009AB23B6B1A8017E07B6D5B78012B13D1CA
:101CCC007B681B68B3F850309BB21A46FB6B13440D
:101CDC00FB637B6D1B781A01FB6B134403F20C4303
:101CEC00BB63BB6B00221A807B6D1B78194678682E
:101CFC00FFF733FC53E0B7F84A3003F48073002B42
:101D0C0046D17B681B68B3F850309BB21A467B6D8A
:101D1C001B78DB00134402335B007A6812681344AF
:101D2C0003F580631B88C3F30903A7F840307B6D70
:101D3C009A69B7F840309A4207D97B6D9A69B7F81F
:101D4C004030D21A7B6D9A6102E07B6D00229A6161
:101D5C007B6D9B69002B06D17B6D1B7819467868CF
:101D6C00FFF7FBFB1BE07B6D5A69B7F840301A4458
:101D7C007B6D5A617B6DDA69B7F840301A447B6D24
:101D8C00DA617B681B68796D184601F0EDFD06E0A1
:101D9C00B7F84A301A46796D786800F01BF97B6801
:101DAC001B68B3F844309BB21BB2002BFFF637AC68
:101DBC00002318465837BD4680BD80B588B000AFAB
:101DCC00F860B9601346FB80FB8803F48043002B5A
:101DDC007ED0FB681B68B3F850309BB21A46BB68C8
:101DEC001B78DB00134402335B00FA68126813445F
:101DFC0003F580631B88C3F309037B83BB689A6973
:101E0C007B8B9A4206D3BB689A697B8BD21ABB68D0
:101E1C009A6102E0BB6800229A61BB689B69002B47
:101E2C0023D1FB681B681A46BB681B789B001344C4
:101E3C001B889BB223F4804323F070033B833B8BC2
:101E4C0083F400533B83FB681B681A46BB681B7802
:101E5C009B001A443B8B43F07F4343F47F0343F4D2
:101E6C00004343F080039BB21380FB8803F04003D4
:101E7C00002B1FD0FB681B681A46BB681B789B00A5
:101E8C0013441B889BB223F4E04323F07003FB82C2
:101E9C00FB681B681A46BB681B789B001A44FB8ABC
:101EAC0043F07F4343F47F0343F4004343F0C00308
:101EBC009BB213807B8B002B00F08780FB6818682B
:101ECC00BB685969BB681A897B8B02F00AFF7CE0FE
:101EDC00FB681B68B3F850309BB21A46BB681B7882
:101EEC00DB00134406335B00FA681268134403F5F5
:101EFC0080631B88C3F309037B83BB689A697B8B64
:101F0C009A4206D3BB689A697B8BD21ABB689A61DA
:101F1C0002E0BB6800229A61BB689B69002B23D14D
:101F2C00FB681B681A46BB681B789B0013441B8814
:101F3C009BB223F4804323F07003FB83FB8B83F46D
:101F4C000053FB83FB681B681A46BB681B789B001D
:101F5C001A44FB8B43F07F4343F47F0343F4004369
:101F6C0043F080039BB21380FB8803F04003002BEB
:101F7C001FD1FB681B681A46BB681B789B00134477
:101F8C001B889BB223F4E04323F07003BB83FB68F4
:101F9C001B681A46BB681B789B001A44BB8B43F02A
:101FAC007F4343F47F0343F4004343F0C0039BB2ED
:101FBC0013807B8B002B08D0FB681868BB685969B1
:101FCC00BB685A897B8B02F08CFE7B8B18462037C2
:101FDC00BD4680BD80B5A4B000AFF860B9601346B3
:101FEC00FB80FB8803F04003002B00F0DD81FB68D5
:101FFC001B68B3F850309BB21A46BB681B78DB00E9
:10200C00134402335B00FA681268134403F58063CF
:10201C001B88C3F30903A7F88630BB689A69B7F825
:10202C0086309A4207D9BB689A69B7F88630D21ABB
:10203C00BB689A6102E0BB6800229A61BB689B692D
:10204C00002B40F0B980BB685B78002B26D1FB6875
:10205C001B68FB62FB681B68B3F850309BB21A46D6
:10206C00FB6A1344FB62BB681B781A01FB6A1344BE
:10207C0003F20443BB62BB6A1B889BB2C3F3090324
:10208C009AB2BB6A1A80BB6A1B889BB26FEA434345
:10209C006FEA53439AB2BB6A1A801AE0BB685B784A
:1020AC00012B16D1FB681B687B63FB681B68B3F8BC
:1020BC0050309BB21A467B6B13447B63BB681B7816
:1020CC001A017B6B134403F204433B633B6B00220A
:1020DC001A80FB681B687B62BB685B78002B26D17F
:1020EC00FB681B68FB61FB681B68B3F850309BB244
:1020FC001A46FB691344FB61BB681B781A01FB6928
:10210C00134403F20C43BB61BB691B889BB2C3F342
:10211C0009039AB2BB691A80BB691B889BB26FEA30
:10212C0043436FEA53439AB2BB691A8017E0BB680A
:10213C005B78012B13D1FB681B68B3F850309BB252
:10214C001A467B6A13447B62BB681B781A017B6A54
:10215C00134403F20C433B623B6A00221A80BB68B7
:10216C001B781946F868FFF7F8F9FB8803F48043ED
:10217C00002B00F0FC82FB681B681A46BB681B78BE
:10218C009B0013441B889BB223F4E04323F07003A1
:10219C00FB82FB681B681A46BB681B789B001A44C1
:1021AC00FB8A43F07F4343F47F0343F4404343F003
:1021BC0080039BB21380DAE2FB8803F48043002B8C
:1021CC0021D0FB681B681A46BB681B789B00134424
:1021DC001B889BB223F4E04323F07003A7F88A30EA
:1021EC00FB681B681A46BB681B789B001A44B7F83F
:1021FC008A3043F07F4343F47F0343F4404343F07E
:10220C0080039BB21380BB6893F82430012B40F001
:10221C00AE82BB685A69B7F886301A44BB685A61FB
:10222C00BB68DA69B7F886301A44BB68DA61BB68F8
:10223C001A6ABB681B699A420BD3BB681B69C7F847
:10224C008C30BB681A6AD7F88C30D21ABB681A6209
:10225C0017E0BB681B6A002B08D1B7F88630C7F8AB
:10226C008C30BB68002283F824200AE0BB68002273
:10227C0083F82420BB681B6AC7F88C30BB6800222B
:10228C001A62BB685B78002B65D1FB681B68FB632B
:10229C00FB681B68B3F850309BB21A46FB6B1344B7
:1022AC00FB63BB681B781A01FB6B134403F20443FA
:1022BC00BB63BB6B1B889BB2C3F309039AB2BB6BAA
:1022CC001A80D7F88C303E2B1DD9D7F88C305B098F
:1022DC00BB64D7F88C3003F01F03002B02D1BB6C0E
:1022EC00013BBB64BB6B1B889AB2BB6C9BB29B0261
:1022FC009BB213439BB26FEA43436FEA53439AB2C8
:10230C00BB6B1A8044E0D7F88C30002B0AD1BB6B26
:10231C001B889BB26FEA43436FEA53439AB2BB6B81
:10232C001A8035E0D7F88C305B08BB64D7F88C305A
:10233C0003F00103002B02D0BB6C0133BB64BB6BFD
:10234C001B889AB2BB6C9BB29B029BB213439AB292
:10235C00BB6B1A801CE0BB685B78012B18D1FB6847
:10236C001B687B64FB681B68B3F850309BB21A4641
:10237C007B6C13447B64BB681B781A017B6C134425
:10238C0003F204433B64D7F88C309AB23B6C1A804E
:10239C00FB681868BB685969BB681A89D7F88C3018
:1023AC009BB202F059FCE2E1FB681B68B3F85030B9
:1023BC009BB21A46BB681B78DB00134406335B00E8
:1023CC00FA681268134403F580631B88C3F309038E
:1023DC00A7F88630BB689A69B7F886309A4207D35B
:1023EC00BB689A69B7F88630D21ABB689A6102E06A
:1023FC00BB6800229A61BB689B69002B40F0C080CF
:10240C00BB685B78002B26D1FB681B68FB67FB68FD
:10241C001B68B3F850309BB21A46FB6F1344FB6732
:10242C00BB681B781A01FB6F134403F20443BB67B0
:10243C00BB6F1B889BB2C3F309039AB2BB6F1A80A4
:10244C00BB6F1B889BB26FEA43436FEA53439AB24C
:10245C00BB6F1A801AE0BB685B78012B16D1FB6846
:10246C001B687B66FB681B68B3F850309BB21A463E
:10247C007B6E13447B66BB681B781A017B6E13441E
:10248C0003F204433B663B6E00221A80FB681B6818
:10249C007B67BB685B78002B2BD1FB681B68FB66EA
:1024AC00FB681B68B3F850309BB21A46FB6E1344A2
:1024BC00FB66BB681B781A01FB6E134403F20C43DA
:1024CC00C7F88030D7F880301B889BB2C3F3090360
:1024DC009AB2D7F880301A80D7F880301B889BB21C
:1024EC006FEA43436FEA53439AB2D7F880301A80AD
:1024FC0017E0BB685B78012B13D1FB681B68B3F842
:10250C0050309BB21A467B6F13447B67BB681B78B9
:10251C001A017B6F134403F20C433B673B6F0022A1
:10252C001A80BB681B781946F868FFF716F8FB8809
:10253C0003F48043002B40F01A81FB681B681A4699
:10254C00BB681B789B0013441B889BB223F4E043AD
:10255C0023F07003A7F88830FB681B681A46BB6829
:10256C001B789B001A44B7F8883043F07F4343F440
:10257C007F0343F4404343F080039BB21380F6E0A7
:10258C00FB8803F48043002B21D1FB681B681A469F
:10259C00BB681B789B0013441B889BB223F4E0435D
:1025AC0023F07003A7F84E30FB681B681A46BB6813
:1025BC001B789B001A44B7F84E3043F07F4343F42A
:1025CC007F0343F4404343F080039BB21380BB680A
:1025DC0093F82430012B40F0CA80BB685A69B7F8D5
:1025EC0086301A44BB685A61BB68DA69B7F8863022
:1025FC001A44BB68DA61BB681A6ABB681B699A42E9
:10260C000BD3BB681B69C7F88C30BB681A6AD7F848
:10261C008C30D21ABB681A6217E0BB681B6A002B9D
:10262C0008D1B7F88630C7F88C30BB68002283F825
:10263C0024200AE0BB681B6AC7F88C30BB680022F8
:10264C001A62BB68002283F82420FB681B687B6538
:10265C00BB685B78002B65D1FB681B68FB65FB686E
:10266C001B68B3F850309BB21A46FB6D1344FB65E4
:10267C00BB681B781A01FB6D134403F20C43BB655A
:10268C00BB6D1B889BB2C3F309039AB2BB6D1A8056
:10269C00D7F88C303E2B1DD9D7F88C305B09BB6634
:1026AC00D7F88C3003F01F03002B02D1BB6E013B1B
:1026BC00BB66BB6D1B889AB2BB6E9BB29B029BB276
:1026CC0013439BB26FEA43436FEA53439AB2BB6D19
:1026DC001A8041E0D7F88C30002B0AD1BB6D1B88D7
:1026EC009BB26FEA43436FEA53439AB2BB6D1A80B5
:1026FC0032E0D7F88C305B08BB66D7F88C3003F02F
:10270C000103002B02D0BB6E0133BB66BB6D1B8873
:10271C009AB2BB6E9BB29B029BB213439AB2BB6D37
:10272C001A8019E0BB685B78012B15D1FB681B681C
:10273C00B3F850309BB21A467B6D13447B65BB6873
:10274C001B781A017B6D134403F20C433B65D7F8DD
:10275C008C309AB23B6D1A80FB681868BB6859695B
:10276C00BB685A89D7F88C309BB202F075FAFB68BB
:10277C001B681A46BB681B789B0013441B889BB2D2
:10278C0023F4E04323F04003BB82BB8A83F01003A5
:10279C00BB82BB8A83F02003BB82FB681B681A4692
:1027AC00BB681B789B001A44BB8A43F07F4343F4FD
:1027BC007F0343F4004343F080039BB21380002358
:1027CC0018469037BD4680BD80B586B000AF7860A6
:1027DC007B68002B01D101236CE27B681B6803F042
:1027EC000103002B00F08780924B5B6803F00C0315
:1027FC00042B0CD08F4B5B6803F00C03082B12D10D
:10280C008C4B5B6803F48033B3F5803F0BD1894B61
:10281C001B6803F40033002B6CD07B685B68002BC7
:10282C0068D1012346E27B685B68B3F5803F06D133
:10283C00804B1B687F4A43F4803313602EE07B6827
:10284C005B68002B0CD17B4B1B687A4A23F48033DA
:10285C001360784B1B68774A23F4802313601DE0C8
:10286C007B685B68B3F5A02F0CD1724B1B68714A67
:10287C0043F4802313606F4B1B686E4A43F4803320
:10288C0013600BE06B4B1B686A4A23F480331360B4
:10289C00684B1B68674A23F4802313607B685B6872
:1028AC00002B13D0FEF75AF9386108E0FEF756F901
:1028BC0002463B69D31A642B01D90323FAE15D4B21
:1028CC001B6803F40033002BF0D014E0FEF746F93C
:1028DC00386108E0FEF742F902463B69D31A642BD3
:1028EC0001D90323E6E1534B1B6803F40033002B9F
:1028FC00F0D100E000BF7B681B6803F00203002BE3
:10290C0063D04C4B5B6803F00C03002B0BD0494B92
:10291C005B6803F00C03082B1CD1464B5B6803F47B
:10292C008033002B16D1434B1B6803F00203002BA2
:10293C0005D07B681B69012B01D00123BAE13D4B0B
:10294C001B6823F0F8027B685B69DB003949134391
:10295C000B603AE07B681B69002B20D0364B0122C0
:10296C001A60FEF7FBF8386108E0FEF7F7F802464C
:10297C003B69D31A022B01D903239BE12D4B1B6816
:10298C0003F00203002BF0D02A4B1B6823F0F80253
:10299C007B685B69DB00274913430B6015E0264B12
:1029AC0000221A60FEF7DAF8386108E0FEF7D6F874
:1029BC0002463B69D31A022B01D903237AE11D4B42
:1029CC001B6803F00203002BF0D17B681B6803F03B
:1029DC000803002B3AD07B689B69002B19D0174B4E
:1029EC0001221A60FEF7BAF8386108E0FEF7B6F873
:1029FC0002463B69D31A022B01D903235AE10D4B32
:102A0C005B6A03F00203002BF0D0012000F09AFA6D
:102A1C001CE00A4B00221A60FEF7A0F838610FE0A8
:102A2C00FEF79CF802463B69D31A022B08D9032304
:102A3C0040E100BF001002400000424280044242CC
:102A4C009E4B5B6A03F00203002BE9D17B681B6889
:102A5C0003F00403002B00F0A6800023FB75974BBA
:102A6C00DB6903F08053002B0DD1944BDB69934A47
:102A7C0043F08053D361914BDB6903F08053BB600F
:102A8C00BB680123FB758E4B1B6803F48073002B12
:102A9C0018D18B4B1B688A4A43F480731360FEF782
:102AAC005DF8386108E0FEF759F802463B69D31A25
:102ABC00642B01D90323FDE0814B1B6803F4807365
:102ACC00002BF0D07B68DB68012B06D17B4B1B6A9B
:102ADC007A4A43F0010313622DE07B68DB68002B1C
:102AEC000CD1764B1B6A754A23F001031362734BAE
:102AFC001B6A724A23F0040313621CE07B68DB68D8
:102B0C00052B0CD16D4B1B6A6C4A43F0040313620A
:102B1C006A4B1B6A694A43F0010313620BE0674B73
:102B2C001B6A664A23F001031362644B1B6A634AF7
:102B3C0023F0040313627B68DB68002B15D0FEF7CF
:102B4C000DF838610AE0FEF709F802463B69D31A22
:102B5C0041F28832934201D90323ABE0574B1B6AF5
:102B6C0003F00203002BEED014E0FDF7F7FF386101
:102B7C000AE0FDF7F3FF02463B69D31A41F28832B3
:102B8C00934201D9032395E04C4B1B6A03F00203DB
:102B9C00002BEED1FB7D012B05D1484BDB69474A5D
:102BAC0023F08053D3617B68DB69002B00F08180BC
:102BBC00424B5B6803F00C03082B61D07B68DB692C
:102BCC00022B46D13F4B00221A60FDF7C7FF38613C
:102BDC0008E0FDF7C3FF02463B69D31A022B01D96B
:102BEC00032367E0354B1B6803F00073002BF0D117
:102BFC007B681B6AB3F5803F08D1304B5B6823F4CC
:102C0C0000327B689B682D4913434B602B4B5B68F0
:102C1C0023F474127B68196A7B685B6A0B4327493F
:102C2C0013434B60274B01221A60FDF797FF386165
:102C3C0008E0FDF793FF02463B69D31A022B01D93A
:102C4C00032337E01D4B1B6803F00073002BF0D0FF
:102C5C002FE01C4B00221A60FDF780FF386108E062
:102C6C00FDF77CFF02463B69D31A022B01D90323E3
:102C7C0020E0124B1B6803F00073002BF0D118E01E
:102C8C007B68DB69012B01D1012313E00B4B5B68E3
:102C9C00FB60FB6803F480327B681B6A9A4206D1A6
:102CAC00FB6803F470127B685B6A9A4201D00123C3
:102CBC0000E0002318461837BD4680BD00100240C6
:102CCC00007000406000424280B584B000AF786074
:102CDC0039607B68002B01D10123D0E06A4B1B6863
:102CEC0003F007033A689A4210D9674B1B6823F02C
:102CFC00070265493B6813430B60634B1B6803F089
:102D0C0007033A689A4201D00123B8E07B681B683C
:102D1C0003F00203002B20D07B681B6803F0040334
:102D2C00002B05D0594B5B68584A43F4E063536061
:102D3C007B681B6803F00803002B05D0534B5B68C2
:102D4C00524A43F460535360504B5B6823F0F002DB
:102D5C007B689B684D4913434B607B681B6803F091
:102D6C000103002B40D07B685B68012B07D1474BDC
:102D7C001B6803F40033002B15D101237FE07B6823
:102D8C005B68022B07D1414B1B6803F00073002BCF
:102D9C0009D1012373E03D4B1B6803F00203002BA8
:102DAC0001D101236BE0394B5B6823F003027B6894
:102DBC005B68364913434B60FDF7D0FEF8600AE0C0
:102DCC00FDF7CCFE0246FB68D31A41F288329342DF
:102DDC0001D9032353E02D4B5B6803F00C027B6895
:102DEC005B689B009A42EBD1274B1B6803F00703EF
:102DFC003A689A4210D2244B1B6823F007022249EE
:102E0C003B6813430B60204B1B6803F007033A68C5
:102E1C009A4201D0012332E07B681B6803F0040363
:102E2C00002B08D0194B5B6823F4E0627B68DB68ED
:102E3C00164913434B607B681B6803F00803002B97
:102E4C0009D0124B5B6823F460527B681B69DB0072
:102E5C000E4913434B6000F021F802460B4B5B68A4
:102E6C001B0903F00F030A49CB5C22FA03F3094A4E
:102E7C001360094B1B681846FDF72EFE00231846FD
:102E8C001037BD4680BD00BF00200240001002403C
:102E9C00FC4D0008140000201800002080B487B0FE
:102EAC0000AF0023FB600023BB6000237B61002389
:102EBC007B6000233B611E4B5B68FB60FB6803F08F
:102ECC000C03042B02D0082B03D027E0194B3B61D9
:102EDC0027E0FB689B0C03F00F03174AD35C7B6065
:102EEC00FB6803F48033002B10D0114B5B685B0C38
:102EFC0003F00103114AD35CBB607B680D4A02FBF3
:102F0C0003F2BB68B2FBF3F37B6104E07B680C4A11
:102F1C0002FB03F37B617B693B6102E0054B3B6188
:102F2C0000BF3B6918461C37BD4680BC704700BFCC
:102F3C000010024000127A000C4E00081C4E0008D3
:102F4C0000093D0080B485B000AF78600A4B1B6867
:102F5C000A4AA2FB03235B0A7A6802FB03F3FB60B9
:102F6C0000BFFB685A1EFA60002BF9D100BF00BFEE
:102F7C001437BD4680BC704714000020D34D62103E
:102F8C0080B586B000AF786000233B610023FB6006
:102F9C007B681B6803F00103002B7DD00023FB75BD
:102FAC004F4BDB6903F08053002B0DD14C4BDB698D
:102FBC004B4A43F08053D361494BDB6903F0805398
:102FCC00BB60BB680123FB75464B1B6803F4807325
:102FDC00002B18D1434B1B68424A43F48073136097
:102FEC00FDF7BCFD386108E0FDF7B8FD02463B6912
:102FFC00D31A642B01D903236DE03A4B1B6803F4FD
:10300C008073002BF0D0364B1B6A03F44073FB60CB
:10301C00FB68002B2ED07B685B6803F44073FA6866
:10302C009A4227D02E4B1B6A23F44073FB602E4B25
:10303C0001221A602C4B00221A60294AFB68136289
:10304C00FB6803F00103002B14D0FDF787FD3861FA
:10305C000AE0FDF783FD02463B69D31A41F2883240
:10306C00934201D9032336E01D4B1B6A03F0020384
:10307C00002BEED01A4B1B6A23F440727B685B6802
:10308C00174913430B62FB7D012B05D1144BDB69F4
:10309C00134A23F08053D3617B681B6803F002034F
:1030AC00002B08D00E4B5B6823F440427B689B6876
:1030BC000B4913434B607B681B6803F01003002B18
:1030CC0008D0074B5B6823F480027B68DB680449FB
:1030DC0013434B60002318461837BD4680BD00BF14
:1030EC0000100240007000404004424280B582B0A3
:1030FC0000AF78607B68002B01D1012341E07B6835
:10310C0093F83D30DBB2002B06D17B68002283F8AC
:10311C003C207868FDF706FC7B68022283F83D2092
:10312C007B681A687B6804331946104600F06EFA07
:10313C007B68012283F846207B68012283F83E20BD
:10314C007B68012283F83F207B68012283F84020B2
:10315C007B68012283F841207B68012283F842209E
:10316C007B68012283F843207B68012283F844208A
:10317C007B68012283F845207B68012283F83D207F
:10318C00002318460837BD4680BD000080B485B0CA
:10319C0000AF78607B6893F83D30DBB2012B01D037
:1031AC00012335E07B68022283F83D207B681B6895
:1031BC00DA687B681B6842F00102DA607B681B6886
:1031CC00164A934209D07B681B68B3F1804F04D038
:1031DC007B681B68124A934211D17B681B689B6801
:1031EC0003F00703FB60FB68062B10D07B681B68A1
:1031FC001A687B681B6842F001021A6007E07B6862
:10320C001B681A687B681B6842F001021A60002375
:10321C0018461437BD4680BC704700BF002C0140D7
:10322C000004004080B582B000AF78607B681B68FA
:10323C001B6903F00203022B22D17B681B68DB683D
:10324C0003F00203022B1BD17B681B686FF0020298
:10325C001A617B6801221A777B681B689B6903F0F3
:10326C000303002B03D0786800F0B4F905E078680C
:10327C0000F0A7F9786800F0B6F97B6800221A779D
:10328C007B681B681B6903F00403042B22D17B6849
:10329C001B68DB6803F00403042B1BD17B681B68E1
:1032AC006FF004021A617B6802221A777B681B6834
:1032BC009B6903F44073002B03D0786800F08AF903
:1032CC0005E0786800F07DF9786800F08CF97B688F
:1032DC0000221A777B681B681B6903F00803082B14
:1032EC0022D17B681B68DB6803F00803082B1BD119
:1032FC007B681B686FF008021A617B6804221A77DE
:10330C007B681B68DB6903F00303002B03D0786830
:10331C0000F060F905E0786800F053F9786800F087
:10332C0062F97B6800221A777B681B681B6903F0C3
:10333C001003102B22D17B681B68DB6803F0100391
:10334C00102B1BD17B681B686FF010021A617B6815
:10335C0008221A777B681B68DB6903F44073002B27
:10336C0003D0786800F036F905E0786800F029F9A8
:10337C00786800F038F97B6800221A777B681B6844
:10338C001B6903F00103012B0ED17B681B68DB6802
:10339C0003F00103012B07D17B681B686FF001025E
:1033AC001A617868FDF7C0F97B681B681B6903F02C
:1033BC008003802B0ED17B681B68DB6803F08003D5
:1033CC00802B07D17B681B686FF080021A617868CC
:1033DC0000F06BFA7B681B681B6903F04003402B01
:1033EC000ED17B681B68DB6803F04003402B07D1D0
:1033FC007B681B686FF040021A61786800F0FCF87B
:10340C007B681B681B6903F02003202B0ED17B68A3
:10341C001B68DB6803F02003202B07D17B681B683B
:10342C006FF020021A61786800F036FA00BF083796
:10343C00BD4680BD80B584B000AF78603960002394
:10344C00FB737B6893F83C30012B01D10223B4E071
:10345C007B68012283F83C207B68022283F83D20A4
:10346C007B681B689B68BB60BB6823F07703BB6001
:10347C00BB6823F47F43BB607B681B68BA689A60A7
:10348C003B681B68B3F5005F3ED0B3F5005F00F2FC
:10349C008780B3F5805F00F08680B3F5805F7FD8BE
:1034AC00702B1AD0702B7BD8602B50D0602B77D818
:1034BC00502B3CD0502B73D8402B58D0402B6FD86E
:1034CC00302B64D0302B6BD8202B60D0202B67D8BE
:1034DC00002B5CD0102B5AD062E07B6818683B68DC
:1034EC0099683B685A683B68DB6800F05EF97B685A
:1034FC001B689B68BB60BB6843F07703BB607B6851
:10350C001B68BA689A604FE07B6818683B689968DA
:10351C003B685A683B68DB6800F047F97B681B68BE
:10352C009A687B681B6842F480429A603CE07B6836
:10353C0018683B6859683B68DB681A4600F0BEF8AF
:10354C007B681B685021184600F015F92CE07B684D
:10355C0018683B6859683B68DB681A4600F0DCF871
:10356C007B681B686021184600F005F91CE07B683D
:10357C0018683B6859683B68DB681A4600F09EF88F
:10358C007B681B684021184600F0F5F80CE07B685E
:10359C001A683B681B681946104600F0ECF803E00B
:1035AC000123FB7300E000BF7B68012283F83D2000
:1035BC007B68002283F83C20FB7B18461037BD4605
:1035CC0080BD80B483B000AF786000BF0C37BD46BF
:1035DC0080BC704780B483B000AF786000BF0C37FC
:1035EC00BD4680BC704780B483B000AF786000BF2C
:1035FC000C37BD4680BC704780B483B000AF786098
:10360C0000BF0C37BD4680BC7047000080B485B04D
:10361C0000AF786039607B681B68FB607B68254A6B
:10362C00934207D07B68B3F1804F03D07B68224A6A
:10363C00934208D1FB6823F07003FB603B685B6826
:10364C00FA681343FB607B681A4A934207D07B6885
:10365C00B3F1804F03D07B68174A934208D1FB68C3
:10366C0023F44073FB603B68DB68FA681343FB6030
:10367C00FB6823F080023B685B691343FB607B684B
:10368C00FA681A603B689A687B68DA623B681A6869
:10369C007B689A627B68074A934203D13B681A693C
:1036AC007B681A637B6801225A6100BF1437BD46E0
:1036BC0080BC7047002C01400004004080B487B0EF
:1036CC0000AFF860B9607A60FB681B6A7B61FB68CD
:1036DC001B6A23F00102FB681A62FB689B693B6161
:1036EC003B6923F0F0033B617B681B013A69134390
:1036FC003B617B6923F00A037B617A69BB681343E6
:10370C007B61FB683A699A61FB687A691A6200BF4F
:10371C001C37BD4680BC704780B487B000AFF860E2
:10372C00B9607A60FB681B6A7B61FB681B6A23F0DB
:10373C001002FB681A62FB689B693B613B6923F4CE
:10374C0070433B617B681B033A6913433B617B69A4
:10375C0023F0A0037B61BB681B017A6913437B6177
:10376C00FB683A699A61FB687A691A6200BF1C3778
:10377C00BD4680BC704780B485B000AF78603960BE
:10378C007B689B68FB60FB6823F07003FB603A6806
:10379C00FB68134343F00703FB607B68FA689A608D
:1037AC0000BF1437BD4680BC704780B487B000AFF3
:1037BC00F860B9607A603B60FB689B687B617B69F1
:1037CC0023F47F437B613B681A027B681A43BB6816
:1037DC0013437A6913437B61FB687A699A6000BF73
:1037EC001C37BD4680BC704780B485B000AF786094
:1037FC0039607B6893F83C30012B01D1022341E006
:10380C007B68012283F83C207B68022283F83D20F0
:10381C007B681B685B68FB607B681B689B68BB6094
:10382C00FB6823F07003FB603B681B68FA6813436A
:10383C00FB607B681B68FA685A607B681B68144ADB
:10384C00934209D07B681B68B3F1804F04D07B682E
:10385C001B68104A93420CD1BB6823F08003BB60F9
:10386C003B685B68BA681343BB607B681B68BA68CB
:10387C009A607B68012283F83D207B68002283F8E4
:10388C003C20002318461437BD4680BC704700BF4F
:10389C00002C01400004004080B483B000AF78607D
:1038AC0000BF0C37BD4680BC704780B483B000AFFE
:1038BC00786000BF0C37BD4680BC704784B080B4C4
:1038CC0083B000AF786007F1140080E80E0000238D
:1038DC0018460C37BD4680BC04B0704780B485B028
:1038EC0000AF78604FF43F43FB607B68B3F8403027
:1038FC009AB2FB689BB2DB439BB213409AB27B68D3
:10390C00A3F84020002318461437BD4680BC7047EE
:10391C0080B483B000AF78600B46FB700023184670
:10392C000C37BD4680BC704784B080B483B000AF08
:10393C00786007F1140080E80E007B680122A3F880
:10394C0040207B680022A3F840207B680022A3F86B
:10395C0044207B680022A3F85020002318460C3723
:10396C00BD4680BC04B0704780B5C2B000AF3B1DF3
:10397C0018603B4619603B461B685B78012B40F096
:10398C0045853B461B689A693B461B681B699A42F6
:10399C0005D93B461B681B69C7F8043104E03B465C
:1039AC001B689B69C7F804313B461B681B7B002BCB
:1039BC0028D13B461B6859693B461B68DA88D7F807
:1039CC0004319BB2381D006801F046F93B1D1B68A1
:1039DC003B613B1D1B68B3F850309BB21A463B69E8
:1039EC0013443B613B461B681B781A013B6913442B
:1039FC0003F20443FB60D7F804319AB2FB681A80D7
:103A0C0000F0DBBC3B461B68DB78022B40F06F837D
:103A1C003B461B681A6A3B461B681B699A4240F27C
:103A2C0013833B1D1A683B461B681B789B00134491
:103A3C001B889BB223F4E04323F07003A7F85630A5
:103A4C003B1D1A683B461B681B789B001A44B7F851
:103A5C00563043F07F4343F47F0343F4014343F078
:103A6C0080039BB213803B461B681A6AD7F804315B
:103A7C00D21A3B461B681A623B1D1A683B461B68F0
:103A8C001B789B0013441B889BB203F04003002B54
:103A9C0000F06D813B1D1B683B633B461B685B78EC
:103AAC00002B6ED13B1D1B68BB623B1D1B68B3F822
:103ABC0050309BB21A46BB6A1344BB623B461B6830
:103ACC001B781A01BB6A134403F20C437B627B6ABA
:103ADC001B889BB2C3F309039AB27B6A1A80D7F88E
:103AEC0004313E2B21D9D7F804315B09C7F80031DA
:103AFC00D7F8043103F01F03002B04D1D7F80031A1
:103B0C00013BC7F800317B6A1B889AB2D7F80031A9
:103B1C009BB29B029BB213439BB26FEA43436FEA87
:103B2C0053439AB27B6A1A8047E0D7F80431002BD2
:103B3C000AD17B6A1B889BB26FEA43436FEA5343FB
:103B4C009AB27B6A1A8038E0D7F804315B08C7F860
:103B5C000031D7F8043103F00103002B04D0D7F85F
:103B6C0000310133C7F800317B6A1B889AB2D7F851
:103B7C0000319BB29B029BB213439AB27B6A1A80B0
:103B8C001BE03B461B685B78012B16D13B1D1B6869
:103B9C00B3F850309BB21A463B6B13443B633B4625
:103BAC001B681B781A013B6B134403F20C43FB623A
:103BBC00D7F804319AB2FB6A1A803B461B685B89C2
:103BCC00A7F876303B461B685969D7F804319BB28D
:103BDC00B7F87620381D006801F03EF83B461B68AC
:103BEC005A69D7F804311A443B461B685A613B4664
:103BFC001B681A6A3B461B681B699A4209D93B46EB
:103C0C001B681A6AD7F80431D21A3B461B681A6231
:103C1C0008E03B461B681B6AC7F804313B461B682F
:103C2C0000221A623B461B685B78002B6ED13B1D51
:103C3C001B68BB613B1D1B68B3F850309BB21A4626
:103C4C00BB691344BB613B461B681B781A01BB69FB
:103C5C00134403F204437B617B691B889BB2C3F35F
:103C6C0009039AB27B691A80D7F804313E2B21D90B
:103C7C00D7F804315B09C7F8FC30D7F8043103F0EE
:103C8C001F03002B04D1D7F8FC30013BC7F8FC30E4
:103C9C007B691B889AB2D7F8FC309BB29B029BB213
:103CAC0013439BB26FEA43436FEA53439AB27B6967
:103CBC001A804AE0D7F80431002B0AD17B691B88A3
:103CCC009BB26FEA43436FEA53439AB27B691A8003
:103CDC003BE0D7F804315B08C7F8FC30D7F8043167
:103CEC0003F00103002B04D0D7F8FC300133C7F8E4
:103CFC00FC307B691B889AB2D7F8FC309BB29B02D4
:103D0C009BB213439AB27B691A801EE03B461B6838
:103D1C005B78012B19D13B1D1B683B623B1D1B685B
:103D2C00B3F850309BB21A463B6A13443B623B4695
:103D3C001B681B781A013B6A134403F20443FB61B2
:103D4C00D7F804319AB2FB691A803B461B681B8971
:103D5C00A7F876303B461B685969D7F804319BB2FB
:103D6C00B7F87620381D006800F076FF25E33B4657
:103D7C001B685B78002B6ED13B1D1B68BB643B1D25
:103D8C001B68B3F850309BB21A46BB6C1344BB642F
:103D9C003B461B681B781A01BB6C134403F20443AB
:103DAC007B647B6C1B889BB2C3F309039AB27B6C5C
:103DBC001A80D7F804313E2B21D9D7F804315B098E
:103DCC00C7F8F830D7F8043103F01F03002B04D1E7
:103DDC00D7F8F830013BC7F8F8307B6C1B889AB2E7
:103DEC00D7F8F8309BB29B029BB213439BB26FEA9D
:103DFC0043436FEA53439AB27B6C1A804AE0D7F87C
:103E0C000431002B0AD17B6C1B889BB26FEA4343B5
:103E1C006FEA53439AB27B6C1A803BE0D7F80431BB
:103E2C005B08C7F8F830D7F8043103F00103002B16
:103E3C0004D0D7F8F8300133C7F8F8307B6C1B8806
:103E4C009AB2D7F8F8309BB29B029BB213439AB24A
:103E5C007B6C1A801EE03B461B685B78012B19D1EA
:103E6C003B1D1B683B653B1D1B68B3F850309BB278
:103E7C001A463B6D13443B653B461B681B781A0185
:103E8C003B6D134403F20443FB64D7F804319AB23C
:103E9C00FB6C1A803B461B681B89A7F876303B46A7
:103EAC001B685969D7F804319BB2B7F87620381DD6
:103EBC00006800F0D1FE3B461B685A69D7F8043104
:103ECC001A443B461B685A613B461B681A6A3B46C0
:103EDC001B681B699A4209D93B461B681A6AD7F8BA
:103EEC000431D21A3B461B681A6208E03B461B6839
:103EFC001B6AC7F804313B461B6800221A623B1D43
:103F0C001B683B643B461B685B78002B6ED13B1DEA
:103F1C001B68BB633B1D1B68B3F850309BB21A4641
:103F2C00BB6B1344BB633B461B681B781A01BB6B12
:103F3C00134403F20C437B637B6B1B889BB2C3F370
:103F4C0009039AB27B6B1A80D7F804313E2B21D926
:103F5C00D7F804315B09C7F8F430D7F8043103F013
:103F6C001F03002B04D1D7F8F430013BC7F8F43011
:103F7C007B6B1B889AB2D7F8F4309BB29B029BB236
:103F8C0013439BB26FEA43436FEA53439AB27B6B82
:103F9C001A8047E0D7F80431002B0AD17B6B1B88C1
:103FAC009BB26FEA43436FEA53439AB27B6B1A801E
:103FBC0038E0D7F804315B08C7F8F430D7F804318F
:103FCC0003F00103002B04D0D7F8F4300133C7F809
:103FDC00F4307B6B1B889AB2D7F8F4309BB29B02FF
:103FEC009BB213439AB27B6B1A801BE03B461B6857
:103FFC005B78012B16D13B1D1B68B3F850309BB27C
:10400C001A463B6C13443B643B461B681B781A01F5
:10401C003B6C134403F20C43FB63D7F804319AB2A4
:10402C00FB6B1A803B461B685B89A7F876303B46D6
:10403C001B685969D7F804319BB2B7F87620381D44
:10404C00006800F009FEB8E13B461B681B6AC7F824
:10405C0004313B1D1A683B461B681B789B001344BC
:10406C001B889BB223F4E24323F07003A7F8623061
:10407C003B1D1A683B461B681B789B001A44B7F81B
:10408C00623043F07F4343F47F0343F4004343F037
:10409C0080039BB213803B1D1B68FB653B1D1B689B
:1040AC00B3F850309BB21A46FB6D1344FB653B468C
:1040BC001B681B781A01FB6D134403F20443BB65A8
:1040CC00D7F804319AB2BB6D1A803B461B681B892A
:1040DC00A7F876303B461B685969D7F804319BB278
:1040EC00B7F87620381D006800F0B6FD65E13B4658
:1040FC001B681A6AD7F80431D21A3B461B681A623D
:10410C003B1D1A683B461B681B789B0013441B889D
:10411C009BB203F04003002B00F0A5803B1D1B68F5
:10412C003B673B461B685B78002B6ED13B1D1B68C5
:10413C00BB663B1D1B68B3F850309BB21A46BB6E76
:10414C001344BB663B461B681B781A01BB6E1344B9
:10415C0003F20C437B667B6E1B889BB2C3F3090393
:10416C009AB27B6E1A80D7F804313E2B21D9D7F83E
:10417C0004315B09C7F8F030D7F8043103F01F03A2
:10418C00002B04D1D7F8F030013BC7F8F0307B6E30
:10419C001B889AB2D7F8F0309BB29B029BB21343A8
:1041AC009BB26FEA43436FEA53439AB27B6E1A8019
:1041BC0047E0D7F80431002B0AD17B6E1B889BB2E9
:1041CC006FEA43436FEA53439AB27B6E1A8038E02E
:1041DC00D7F804315B08C7F8F030D7F8043103F096
:1041EC000103002B04D0D7F8F0300133C7F8F030BE
:1041FC007B6E1B889AB2D7F8F0309BB29B029BB2B5
:10420C0013439AB27B6E1A801BE03B461B685B78AB
:10421C00012B16D13B1D1B68B3F850309BB21A46CC
:10422C003B6F13443B673B461B681B781A013B6F83
:10423C00134403F20C43FB66D7F804319AB2FB6EBD
:10424C001A803B461B685B89A7F876303B461B6897
:10425C005969D7F804319BB2B7F87620381D00683D
:10426C0000F0FAFCA9E03B461B685B78002B6ED192
:10427C003B1D1B68FB673B1D1B68B3F850309BB2A2
:10428C001A46FB6F1344FB673B461B681B781A01ED
:10429C00FB6F134403F20443BB67BB6F1B889BB2D9
:1042AC00C3F309039AB2BB6F1A80D7F804313E2BC3
:1042BC0021D9D7F804315B09C7F8EC30D7F80431B1
:1042CC0003F01F03002B04D1D7F8EC30013BC7F8E7
:1042DC00EC30BB6F1B889AB2D7F8EC309BB29B02C8
:1042EC009BB213439BB26FEA43436FEA53439AB2B8
:1042FC00BB6F1A8050E0D7F80431002B0AD1BB6F8A
:10430C001B889BB26FEA43436FEA53439AB2BB6F6D
:10431C001A8041E0D7F804315B08C7F8EC30D7F8C5
:10432C00043103F00103002B04D0D7F8EC30013337
:10433C00C7F8EC30BB6F1B889AB2D7F8EC309BB245
:10434C009B029BB213439AB2BB6F1A8024E03B468C
:10435C001B685B78012B1FD13B1D1B68C7F8843091
:10436C003B1D1B68B3F850309BB21A46D7F884300B
:10437C001344C7F884303B461B681B781A01D7F8E6
:10438C008430134403F20443C7F88030D7F8043167
:10439C009AB2D7F880301A803B461B681B89A7F865
:1043AC0076303B461B685969D7F804319BB2B7F895
:1043BC007620381D006800F04FFC3B1D1A683B4608
:1043CC001B681B789B0013441B889BB223F4E043AF
:1043DC0023F040037B817B8983F010037B817B89F5
:1043EC0083F020037B813B1D1A683B461B681B78BE
:1043FC009B001A447B8943F07F4343F47F0343F4CF
:10440C00004343F080039BB21380F3E33B461B68ED
:10441C001B7B002B40F09C803B461B689A693B46FB
:10442C001B681B699A420ED93B461B681B69C7F86F
:10443C0004313B461B689A69D7F80431D21A3B46C3
:10444C001B689A6108E03B461B689B69C7F80431FE
:10445C003B461B6800229A613B1D1B68C7F89030D5
:10446C003B1D1B68B3F850309BB21A46D7F89030FE
:10447C001344C7F890303B461B681B781A01D7F8D9
:10448C009030134403F20C43C7F88C30D7F88C30BF
:10449C001B889BB2C3F309039AB2D7F88C301A80ED
:1044AC00D7F804313E2B23D9D7F804315B09C7F870
:1044BC00E830D7F8043103F01F03002B04D1D7F8F0
:1044CC00E830013BC7F8E830D7F88C301B889AB23B
:1044DC00D7F8E8309BB29B029BB213439BB26FEAB6
:1044EC0043436FEA53439AB2D7F88C301A8053E3A4
:1044FC00D7F80431002B0CD1D7F88C301B889BB229
:10450C006FEA43436FEA53439AB2D7F88C301A8060
:10451C0042E3D7F804315B08C7F8E830D7F8043128
:10452C0003F00103002B04D0D7F8E8300133C7F8AF
:10453C00E830D7F88C301B889AB2D7F8E8309BB2A9
:10454C009B029BB213439AB2D7F88C301A8023E3A8
:10455C003B461B68DB78022B40F0A9813B461B686D
:10456C005B78002B40F082803B1D1B68C7F8AC3099
:10457C003B1D1B68B3F850309BB21A46D7F8AC30D1
:10458C001344C7F8AC303B461B681B781A01D7F8AC
:10459C00AC30134403F20443C7F8A830D7F8A83062
:1045AC001B889BB2C3F309039AB2D7F8A8301A80C0
:1045BC003B461B681B693E2B25D93B461B681B6978
:1045CC005B09C7F8E4303B461B681B6903F01F030B
:1045DC00002B04D1D7F8E430013BC7F8E430D7F80E
:1045EC00A8301B889AB2D7F8E4309BB29B029BB2DE
:1045FC0013439BB26FEA43436FEA53439AB2D7F823
:10460C00A8301A8058E03B461B681B69002B0CD164
:10461C00D7F8A8301B889BB26FEA43436FEA534329
:10462C009AB2D7F8A8301A8046E03B461B681B6943
:10463C005B08C7F8E4303B461B681B6903F00103B9
:10464C00002B04D0D7F8E4300133C7F8E430D7F8A6
:10465C00A8301B889AB2D7F8E4309BB29B029BB26D
:10466C0013439AB2D7F8A8301A8025E03B461B6852
:10467C005B78012B20D13B1D1B68C7F8B4303B1D68
:10468C001B68B3F850309BB21A46D7F8B4301344B9
:10469C00C7F8B4303B461B681B781A01D7F8B43006
:1046AC00134403F20443C7F8B0303B461B681B6944
:1046BC009AB2D7F8B0301A803B1D1B68C7F8A430EB
:1046CC003B461B685B78002B40F082803B1D1B68CF
:1046DC00C7F89C303B1D1B68B3F850309BB21A4690
:1046EC00D7F89C301344C7F89C303B461B681B78AA
:1046FC001A01D7F89C30134403F20C43C7F89830D6
:10470C00D7F898301B889BB2C3F309039AB2D7F839
:10471C0098301A803B461B681B693E2B25D93B46BB
:10472C001B681B695B09C7F8E0303B461B681B69BB
:10473C0003F01F03002B04D1D7F8E030013BC7F87E
:10474C00E030D7F898301B889AB2D7F8E0309BB29B
:10475C009B029BB213439BB26FEA43436FEA5343F2
:10476C009AB2D7F898301A8054E03B461B681B6904
:10477C00002B0CD1D7F898301B889BB26FEA4343BF
:10478C006FEA53439AB2D7F898301A8042E03B460E
:10479C001B681B695B08C7F8E0303B461B681B694C
:1047AC0003F00103002B04D0D7F8E0300133C7F835
:1047BC00E030D7F898301B889AB2D7F8E0309BB22B
:1047CC009B029BB213439AB2D7F898301A8021E01F
:1047DC003B461B685B78012B1CD13B1D1B68B3F857
:1047EC0050309BB21A46D7F8A4301344C7F8A43003
:1047FC003B461B681B781A01D7F8A430134403F20C
:10480C000C43C7F8A0303B461B681B699AB2D7F81B
:10481C00A0301A803B461B68DB69002B00F0BC8182
:10482C003B1D1A683B461B681B789B0013441B8876
:10483C00A7F89630B7F8963003F48043002B05D0D8
:10484C00B7F8963003F04003002B0DD1B7F8963033
:10485C0003F48043002B40F09F81B7F8963003F0AF
:10486C004003002B40F098813B1D1A683B461B68A7
:10487C001B789B0013441B889BB223F4E04323F06A
:10488C007003A7F894303B1D1A683B461B681B78D5
:10489C009B001A44B7F8943043F07F4343F47F03F2
:1048AC0043F4004343F0C0039BB2138074E13B46D6
:1048BC001B68DB78012B40F06D813B461B689A69C5
:1048CC003B461B681B699A420ED93B461B681B6909
:1048DC00C7F804313B461B689A69D7F80431D21AE1
:1048EC003B461B689A6108E03B461B689B69C7F80E
:1048FC0004313B461B6800229A613B461B685B787F
:10490C00002B7BD13B1D1B68C7F8CC303B1D1B68B3
:10491C00B3F850309BB21A46D7F8CC301344C7F8D2
:10492C00CC303B461B681B781A01D7F8CC301344AB
:10493C0003F20443C7F8C830D7F8C8301B889BB2C1
:10494C00C3F309039AB2D7F8C8301A80D7F80431E8
:10495C003E2B23D9D7F804315B09C7F8DC30D7F8E4
:10496C00043103F01F03002B04D1D7F8DC30013BDA
:10497C00C7F8DC30D7F8C8301B889AB2D7F8DC30CF
:10498C009BB29B029BB213439BB26FEA43436FEA09
:10499C0053439AB2D7F8C8301A8054E0D7F8043190
:1049AC00002B0CD1D7F8C8301B889BB26FEA43435D
:1049BC006FEA53439AB2D7F8C8301A8043E0D7F85D
:1049CC0004315B08C7F8DC30D7F8043103F001037D
:1049DC00002B04D0D7F8DC300133C7F8DC30D7F823
:1049EC00C8301B889AB2D7F8DC309BB29B029BB2C2
:1049FC0013439AB2D7F8C8301A8024E03B461B68A0
:104A0C005B78012B1FD13B1D1B68C7F8D4303B1DB5
:104A1C001B68B3F850309BB21A46D7F8D430134405
:104A2C00C7F8D4303B461B681B781A01D7F8D43032
:104A3C00134403F20443C7F8D030D7F804319AB2C8
:104A4C00D7F8D0301A803B1D1B68C7F8C4303B46E2
:104A5C001B685B78002B7BD13B1D1B68C7F8BC30F7
:104A6C003B1D1B68B3F850309BB21A46D7F8BC30CC
:104A7C001344C7F8BC303B461B681B781A01D7F8A7
:104A8C00BC30134403F20C43C7F8B830D7F8B83035
:104A9C001B889BB2C3F309039AB2D7F8B8301A80BB
:104AAC00D7F804313E2B23D9D7F804315B09C7F86A
:104ABC00D830D7F8043103F01F03002B04D1D7F8FA
:104ACC00D830013BC7F8D830D7F8B8301B889AB229
:104ADC00D7F8D8309BB29B029BB213439BB26FEAC0
:104AEC0043436FEA53439AB2D7F8B8301A8053E075
:104AFC00D7F80431002B0CD1D7F8B8301B889BB2F7
:104B0C006FEA43436FEA53439AB2D7F8B8301A802E
:104B1C0042E0D7F804315B08C7F8D830D7F8043135
:104B2C0003F00103002B04D0D7F8D8300133C7F8B9
:104B3C00D830D7F8B8301B889AB2D7F8D8309BB297
:104B4C009B029BB213439AB2D7F8B8301A8023E079
:104B5C003B461B685B78012B1ED13B1D1B68B3F8D1
:104B6C0050309BB21A46D7F8C4301344C7F8C4303F
:104B7C003B461B681B781A01D7F8C430134403F268
:104B8C000C43C7F8C030D7F804319AB2D7F8C0300C
:104B9C001A8001E001232EE03B1D1A683B461B687E
:104BAC001B789B0013441B889BB223F4804323F097
:104BBC007003A7F88A30B7F88A3083F48053A7F8CB
:104BCC008A30B7F88A3083F40053A7F88A303B1D3B
:104BDC001A683B461B681B789B001A44B7F88A304E
:104BEC0043F07F4343F47F0343F4004343F08003DB
:104BFC009BB213800023184607F58477BD4680BD11
:104C0C0080B483B000AF78600B46FB70FB78002B50
:104C1C0003D17B688022A3F84C20002318460C3764
:104C2C00BD4680BC704780B483B000AF7860002371
:104C3C0018460C37BD4680BC704780B485B000AFB9
:104C4C0078607B68B3F844309BB2FB60FB68184615
:104C5C001437BD4680BC704780B48BB000AFF86091
:104C6C00B96011461A460B46FB801346BB80BB88C5
:104C7C0001335B08BB61FB687B61BB68FB61FB8834
:104C8C005A007B69134403F580633B62BB697B620A
:104C9C001EE0FB691B787B82FB6901331B781B02CE
:104CAC001AB2B7F9123013431BB27B823B6A7A8A71
:104CBC001A803B6A02333B623B6A02333B62FB69FC
:104CCC000133FB61FB690133FB617B6A013B7B6256
:104CDC007B6A002BDDD100BF00BF2C37BD4680BCEA
:104CEC00704780B48BB000AFF860B96011461A46BB
:104CFC000B46FB801346BB80BB885B089BB2BB6139
:104D0C00FB687B61BB68FB61FB885A007B691344C1
:104D1C0003F580633B62BB697B621BE03B6A1B88CB
:104D2C009BB23B613B6A02333B623B69DAB2FB6983
:104D3C001A70FB690133FB613B691B0ADAB2FB6930
:104D4C001A70FB690133FB613B6A02333B627B6A7D
:104D5C00013B7B627B6A002BE0D1BB8803F0010333
:104D6C009BB2002B07D03B6A1B889BB23B613B6913
:104D7C00DAB2FB691A7000BF2C37BD4680BC704795
:104D8C0070B500260C4D0D4C641BA410A64209D125
:104D9C0000F022F800260A4D0A4C641BA410A6420F
:104DAC0005D170BD55F8043B98470136EEE755F830
:104DBC00043B98470136F2E7204E0008204E0008CD
:104DCC00204E0008244E000803460244934200D1B2
:104DDC00704703F8011BF9E7F8B500BFF8BC08BC35
:104DEC009E467047F8B500BFF8BC08BC9E4670479D
:104DFC00000000000000000001020304060708097F
:104E0C0002030405060708090A0B0C0D0E0F1010FF
:044E1C00010200008F
:044E20003101000854
:044E24000D01000874
:104E28000100000002000000030000000400000070
:104E3800320000000024F40010000000010000000F
:0400000508000A6D78
:00000001FF
